S019000050726F796563746F345F4B525F50756C732E7372656383
S11300000C9434000C9446000C9446000C94460066
S11300100C9446000C9446000C9446000C94460044
S11300200C9446000C9446000C9446000C94460034
S11300300C9446000C94E6000C9446000C94460084
S11300400C9446000C9446000C9446000C94460014
S11300500C9446000C9446000C9446000C94460004
S11300600C9446000C94460011241FBECFEFD8E038
S1130070DEBFCDBF21E0A0E0B1E001C01D92A13000
S1130080B207E1F70E9497000C9462010C940000FF
S1130090FC01408121E030E002C0220F331F6A9549
S11300A0E2F7242B20830895FC01808121E030E0D5
S11300B002C0220F331F6A95E2F7922F909589238D
S11300C0808380818181282B21830895FC01908184
S11300D021E030E002C0220F331F6A95E2F7209539
S11300E0292320830895FC01408121E030E002C0EF
S11300F0220F331F6A95E2F7242B20830895FC0115
S1130100408121E030E002C0220F331F6A95E2F7FC
S1130110242720830895FC01808190E002C09595F6
S113012087956A95E2F7F1E08F278170089565E07D
S113013084E290E00E94480065E085E290E00E943D
S1130140660064E084E290E00E94480064E085E296
S113015090E00E94730063E084E290E00E94480013
S113016063E085E290E00E94730062E084E290E044
S11301700E94480062E085E290E00E94730060E023
S11301808AE290E00E9454007894C1E8D0E00FE63F
S113019010E060E089E290E00E948B00813059F425
S11301A088818B7F8883888183608883F80180813C
S11301B081608083EECF88818C7F8883888184608E
S11301C08883F801808181608083E3CF1F920F923E
S11301D00FB60F9211242F933F934F935F936F9316
S11301E07F938F939F93AF93BF93EF93FF938091EC
S11301F0000191E0811190E0911106C091E08530F9
S113020009F090E09923F9F0853069F465E085E21E
S113021090E00E947F0064E085E290E00E947F000D
S1130220109200013EC065E085E290E00E947F00EC
S113023064E085E290E00E947F00809100018F5F7E
S1130240809300012EC091E0813009F090E091117B
S113025006C091E0843009F090E0992381F064E0D5
S113026085E290E00E947F0063E085E290E00E94D6
S11302707F00809100018F5F8093000112C0825043
S1130280823078F463E085E290E00E947F0062E0CF
S113029085E290E00E947F00809100018F5F80934F
S11302A00001FF91EF91BF91AF919F918F917F9149
S11302B06F915F914F913F912F910F900FBE0F90CF
S10B02C01F901895F894FFCF7C
S9030000FC
