S019000050726F796563746F365F434F554E5445522E7372656301
S11300000C9434000C9451000C9451000C94510045
S11300100C9451000C9451000C9451000C94510018
S11300200C9451000C9426010C9451000C94510032
S11300300C9451000C9451000C9451000C945100F8
S11300400C9451000C9451000C9451000C945100E8
S11300500C9451000C9451000C9451000C945100D8
S11300600C9451000C94510011241FBECFEFD8E022
S1130070DEBFCDBF11E0A0E0B1E0E2EDF4E002C0EC
S113008005900D92AA30B107D9F721E0AAE0B1E0BA
S113009001C01D92AD30B207E1F70E94FA000C9442
S11300A067020C940000299A85E08A95F1F7000014
S11300B029980895CF93C82F662311F0289A01C078
S11300C02898549A559A569A579A5F985E985D98CC
S11300D05C98CC230CF45F9AC6FD5E9AC5FD5D9ACC
S11300E0C4FD5C9A0E9453005F985E985D985C988A
S11300F0C3FD5F9AC2FD5E9AC1FD5D9AC0FD5C9A24
S11301000E9453005C9A5D9A5E9A5F9A87EB9BE02B
S11301100197F1F700C00000CF91089560E00E94BC
S11301205A00089561E00E945A000895611104C0C4
S113013080580E948E00089580540E948E00089575
S113014081E00E948E00089561E00E945A000895A3
S1130150CF93DF93EC012196FC018081882329F061
S11301600E94A40089918111FBCFDF91CF91089562
S1130170CF93C82F209A559A219A549A559A569AF1
S1130180579A8FEF99EF0197F1F700C000005D9A3D
S11301905C9A0E9453008FE19EE40197F1F700C03E
S11301A000000E9453008FEF90E00197F1F700C028
S11301B000000E9453008FEF90E00197F1F700C018
S11301C000005C980E9453008FEF90E00197F1F7D4
S11301D000C0000088E20E948E0088E00E948E0029
S11301E00E94A00086E00E948E008C2F0E948E0048
S11301F0CF9108958CE00E94B80060E081E00E94F5
S1130200960081E091E00E94A80060E08BE00E94EB
S1130210960080E30E94A40061E081E00E949600C1
S113022082E60E94A40061E08BE00E94960083E6CF
S11302300E94A400E1EBF0E0808187608083E0E726
S1130240F0E08081816080837894FFCF1F920F92C9
S11302500FB60F9211242F933F934F935F936F9395
S11302607F938F939F93AF93BF93EF93FF93CF931A
S1130270DF9300D000D0CDB7DEB780E290E09A8360
S113028089839C838B8380910C018F5F863018F463
S113029080930C01D0C010920C01809100018A302F
S11302A008F4B3C01092000180910B018F5F80931A
S11302B00B014AE0BE016D5F7F4F889FC00111248E
S11302C00E94320260E08BE00E949600CE01039609
S11302D00E94A80080910B018A3080F04AE0BE01A0
S11302E06F5F7F4F90E00E94320260E084E00E94E2
S11302F09600CE0101960E94A8000FC04AE0BE01FC
S11303006F5F7F4F90E00E94320260E085E00E94C0
S11303109600CE0101960E94A80080910B018C33B7
S113032008F473C010920B014AE0BE016F5F7F4F67
S113033080E090E00E94320260E084E00E94960037
S1130340CE0101960E94A80080910B014AE0BE01F3
S11303506D5F7F4F889FC00111240E94320260E0CC
S11303608BE00E949600CE0103960E94A80060E0F4
S11303708CE00E94960080E20E94920060E08DE092
S11303800E94960080E20E94920060E08EE00E944B
S1130390960080E20E94920080910A018F5F809310
S11303A00A018C3388F010920A0160E081E00E9417
S11303B0960080E30E94A40060E082E00E94960020
S11303C080E30E94A40021C08A3080F04AE0BE018C
S11303D06F5F7F4F90E00E94320260E081E00E94F4
S11303E09600CE0101960E94A8000FC04AE0BE010B
S11303F06F5F7F4F90E00E94320260E082E00E94D3
S11304009600CE0101960E94A800809100014AE066
S1130410BE016F5F7F4F90E00E94320260E087E090
S11304200E949600CE0101960E94A80080910001CE
S11304308F5F809300010F900F900F900F90DF91CA
S1130440CF91FF91EF91BF91AF919F918F917F9148
S11304506F915F914F913F912F910F900FBE0F902D
S11304601F901895BB274A3031F4992322F4BDE23A
S1130470909581959F4F0C943E02BB27FB01552715
S1130480AA27880F991FAA1FA41710F0A41B8395ED
S11304905051B9F7A05DAA3308F0A95DA193009764
S11304A079F7B111B1931192CB010C945702DC018D
S11304B0FC01672F71917723E1F7329704C07C9197
S11304C06D9370836291AE17BF07C8F30895F894D3
S10504D0FFCF58
S10D04D20130303A30302E300000C3
S9030000FC
