S011000050726F796563746F312E737265638D
S11300000C9434000C943E000C943E000C943E007E
S11300100C943E000C943E000C943E000C943E0064
S11300200C943E000C943E000C943E000C943E0054
S11300300C943E000C943E000C943E000C943E0044
S11300400C943E000C943E000C943E000C943E0034
S11300500C943E000C943E000C943E000C943E0024
S11300600C943E000C943E0011241FBECFEFD8E048
S1130070DEBFCDBF0E9440000C9437010C940000F9
S1130080259A2D9880E22FEF39E698E121503040EF
S11300909040E1F700C0000095B1982795B92FEF83
S11300A03DE399E4215030409040E1F700C0000066
S11300B095B1982795B92FEF39E698E12150304052
S11300C09040E1F700C0000095B1982795B92FEF53
S11300D039E698E1215030409040E1F700C000003B
S11300E095B1982795B92FEF39E698E12150304022
S11300F09040E1F700C0000095B1982795B92FEF23
S113010039E698E1215030409040E1F700C000000A
S113011095B1982795B92FEF3DE399E421503040EC
S11301209040E1F700C0000095B1982795B92FEFF2
S113013039E698E1215030409040E1F700C00000DA
S113014095B1982795B92FEF39E698E121503040C1
S11301509040E1F700C000002FEF3DE399E4215007
S113016030409040E1F700C0000095B1982795B960
S11301702FEF39E698E1215030409040E1F700C07C
S1130180000095B1982795B92FEF39E698E12150F1
S113019030409040E1F700C0000095B1982795B930
S11301A02FEF39E698E1215030409040E1F700C04C
S11301B0000095B1982795B92FEF39E698E12150C1
S11301C030409040E1F700C0000095B1982795B900
S11301D02FEF3DE399E4215030409040E1F700C017
S11301E0000095B1982795B92FEF39E698E1215091
S11301F030409040E1F700C0000095B1982795B9D0
S11302002FEF3DE399E4215030409040E1F700C0E6
S1130210000095B1982795B92FEF39E698E1215060
S113022030409040E1F700C0000095B1982795B99F
S11302302FEF3DE399E4215030409040E1F700C0B6
S1130240000095B1982795B92FEF39E698E1215030
S113025030409040E1F700C000002FEF3DE399E407
S1130260215030409040E1F700C000000CCFF894DA
S1050270FFCFBA
S9030000FC
