S017000050726F796563746F355F534E414B452E73726563B2
S11300000C9434000C9451000C9451000C94510045
S11300100C9451000C9451000C9451000C94510018
S11300200C9451000C9451000C9451000C94510008
S11300300C9451000C948F000C9451000C945100BA
S11300400C9451000C9451000C9451000C945100E8
S11300500C9451000C9451000C9451000C945100D8
S11300600C9451000C94510011241FBECFEFD8E022
S1130070DEBFCDBF11E0A0E0B1E0E0E2F3E002C0FA
S113008005900D92AC30B107D9F721E0ACE0B1E0B6
S113009001C01D92AD30B207E1F70E9478000C94C4
S11300A08E010C940000FC01408121E030E002C08C
S11300B0220F331F6A95E2F7242B20830895FC0155
S11300C0908121E030E002C0220F331F6A95E2F7ED
S11300D02095292320830895FC01408121E030E00C
S11300E002C0220F331F6A95E2F7242B2083089560
S11300F00E940B016091000180910C010E941B0180
S1130100E1E8F0E080818B7F80838081836080835D
S1130110EFE6F0E08081816080837894FFCF1F92C6
S11301200F920FB60F9211242F933F934F935F9327
S11301306F937F938F939F93AF93BF93EF93FF93AB
S113014080910C01609100012FEF260F91E0233084
S113015008F090E0992369F091E0811190E09923EF
S113016041F00E941B0180910001815080930001A5
S113017041C091E0833008F090E0992369F091E068
S1130180611190E0992341F00E941B0180910C01C0
S11301908F5F80930C012EC091E0833009F090E0D2
S11301A0992371F091E0633008F090E0992341F0D5
S11301B00E941B01809100018F5F809300011AC08F
S11301C021E09DEF980F923008F020E0222371F097
S11301D091E0633009F090E0992341F00E941B0103
S11301E080910C018F5F80930C0104C00E941B015D
S11301F010920C01FF91EF91BF91AF919F918F915C
S11302007F916F915F914F913F912F910F900FBE0E
S11302100F901F90189564E08AE290E00E945300CA
S113022067E08AE290E00E94530060E084E290E09C
S11302300E94530008951F93CF93DF93E82FF0E0BB
S1130240EB5FFE4F1081E62FF0E0EF5FFE4FD081B1
S113025064E08BE290E00E945F0067E08BE290E054
S11302600E945F0060E085E290E00E945F0085E00C
S11302708A95F1F70000C8E010FD06C060E085E251
S113028090E00E945F0005C060E085E290E00E947B
S11302906C0085E08A95F1F7000067E08BE290E05E
S11302A00E946C0085E08A95F1F7000067E08BE21C
S11302B090E00E945F001695C150F1F6C8E0D0FDB1
S11302C006C060E085E290E00E945F0005C060E047
S11302D085E290E00E946C0085E08A95F1F70000C9
S11302E067E08BE290E00E946C0085E08A95F1F76C
S11302F0000067E08BE290E00E945F00D695C15059
S1130300F1F664E08BE290E00E946C0085E08A954F
S1130310F1F70000DF91CF911F910895F894FFCF7A
S10F032003102040807FBFDFEFF7FB00DC
S9030000FC
