S016000050726F796563746F375F554152542E73726563E7
S11300000C9434000C9451000C9451000C94510045
S11300100C9451000C9451000C9451000C94510018
S11300200C9451000C9451000C9451000C94510008
S11300300C9451000C9447010C9451000C94510001
S11300400C9451000C9451000C9487020C94B5024A
S11300500C9451000C945C010C9451000C945100CC
S11300600C9451000C94510011241FBECFEFD8E022
S1130070DEBFCDBF11E0A0E0B1E0E6EAF6E002C0E9
S113008005900D92AE39B107D9F722E0AEE9B1E09F
S113009001C01D92A332B207E1F70E94F6000C944E
S11300A051030C940000299A85E08A95F1F7000029
S11300B029980895CF93C82F662311F0289A01C078
S11300C02898549A559A569A579A5F985E985D98CC
S11300D05C98CC230CF45F9AC6FD5E9AC5FD5D9ACC
S11300E0C4FD5C9A0E9453005F985E985D985C988A
S11300F0C3FD5F9AC2FD5E9AC1FD5D9AC0FD5C9A24
S11301000E9453005C9A5D9A5E9A5F9A87EB9BE02B
S11301100197F1F700C00000CF91089560E00E94BC
S11301205A000895611104C080580E948E000895F9
S113013080540E948E00089581E00E948E000895EC
S113014061E00E945A000895CF93DF93EC01219659
S1130150FC018081882329F00E94A00089918111EB
S1130160FBCFDF91CF910895CF93C82F209A559A52
S1130170219A549A559A569A579A8FEF99EF019764
S1130180F1F700C000005D9A5C9A0E9453008FE171
S11301909EE40197F1F700C000000E9453008FEF26
S11301A090E00197F1F700C000000E9453008FEF28
S11301B090E00197F1F700C000005C980E945300A2
S11301C08FEF90E00197F1F700C0000088E20E94F1
S11301D08E0088E00E948E000E949C0086E00E94AF
S11301E08E008C2F0E948E00CF9108958CE00E9487
S11301F0B40060E081E00E94920080E091E00E94FF
S1130200A40061E083E00E94920087E091E00E94F4
S1130210A40060E088E00E9492008CE091E00E94DB
S1130220A40060E08DE00E9492008EE091E00E94C4
S1130230A40061E088E00E9492008AE891E00E94B4
S1130240A400ECE7F0E08081806480838081807F7B
S11302508083EAE7F0E08081806880838081886021
S11302608083808187608083E1E8F0E080818B7FF8
S11302708083808183608083EFE6F0E08081816009
S1130280808387E690E00E94DF027894FFCF1F927C
S11302900F920FB60F9211248F93EF93FF93EAE717
S11302A0F0E0808180648083FF91EF918F910F90C3
S11302B00FBE0F901F9018951F920F920FB60F92BA
S11302C011240F931F932F933F934F935F936F9337
S11302D07F938F939F93AF93BF93EF93FF93CF93AA
S11302E0DF9300D000D0CDB7DEB780E390E39A83EC
S11302F089839C838B8300917800109179004AE074
S1130300BE016F5F7F4FC8010E941C0360E088E05C
S11303100E9492008BE391E00E94A40060E088E0D8
S11303200E949200CE0101960E94A4000C3B82E040
S1130330180708F0B0C080E191E00E940D03CE01DF
S113034001960E940D0383E291E00E940D0340E1B7
S1130350BE016F5F7F4FC8010E941C0360E08DE007
S11303600E9492008BE391E00E94A40060E08DE083
S11303700E949200CE0101960E94A40086E291E0C0
S11303800E940D03CE0101960E940D0383E291E0C9
S11303900E940D0361E088E00E94920089E391E0ED
S11303A00E94A40061E088E00E94920003301105DD
S11303B068F488E491E00E94A40080E491E00E9443
S11303C00D0383E291E00E940D0388C0C8018356A7
S11303D09109059768F486E591E00E94A4008EE4F3
S11303E091E00E940D0383E291E00E940D0376C028
S11303F0C801835F9109059768F481E691E00E9442
S1130400A40089E591E00E940D0383E291E00E943B
S11304100D0364C0C80180599140059768F48EE6C5
S113042091E00E94A40086E691E00E940D0383E21D
S113043091E00E940D0352C0C8018858924005976C
S113044068F48BE791E00E94A40083E791E00E94A6
S11304500D0383E291E00E940D0340C00D3F134061
S113046068F08AE891E00E94A40082E891E00E948A
S11304700D0383E291E00E940D0330C087E991E00F
S11304800E94A4008FE891E00E940D0383E291E0B2
S11304900E940D0323C040E1BE016F5F7F4FC8017E
S11304A00E941C0360E08DE00E9492008BE391E0C7
S11304B00E94A40060E08DE00E949200CE010196AB
S11304C00E94A40061E088E00E94920089E391E028
S11304D00E94A40061E088E00E9492000F900F90B7
S11304E00F900F90DF91CF91FF91EF91BF91AF915A
S11304F09F918F917F916F915F914F913F912F9138
S11305001F910F910F900FBE0F901F9018951F927F
S11305100F920FB60F9211242F938F939F93EF9303
S1130520FF938091C0002091C6008C71E091A001DE
S1130530EF5FEF7390919F01E91739F0E093A00109
S1130540F0E0ED55FE4F208301C082E090919E01C2
S1130550892B80939E01FF91EF919F918F912F9111
S11305600F900FBE0F901F9018951F920F920FB609
S11305700F9211248F939F93EF93FF939091A20175
S11305808091A101981769F0E091A101EF5FEF73E9
S1130590E093A101F0E0ED51FE4F80818093C6000D
S11305A005C0E1ECF0E080818F7D8083FF91EF91C5
S11305B09F918F910F900FBE0F901F9018951092DE
S11305C0A2011092A1011092A00110929F019923FF
S11305D01CF422E02093C00090789093C50080938F
S11305E0C40088E98093C10086E08093C200089526
S11305F02091A2012F5F2F739091A1012917E1F39C
S1130600E22FF0E0ED51FE4F80832093A201E1EC54
S1130610F0E08081806280830895CF93DF93EC01C2
S11306208881882331F021960E94F80289918111F2
S1130630FBCFDF91CF910895BB274A3031F4992342
S113064022F4BDE2909581959F4F0C942803BB271B
S1130650FB015527AA27880F991FAA1FA41710F07A
S1130660A41B83955051B9F7A05DAA3308F0A95D86
S1130670A193009779F7B111B1931192CB010C9426
S11306804103DC01FC01672F71917723E1F7329775
S113069004C07C916D9370836291AE17BF07C8F359
S10906A00895F894FFCF59
S11306A676616C75653A006B65793A0061006200A3
S11306B64144432076616C756520696E2044454348
S11306C63A20000D0A004144432076616C7565208A
S11306D6696E204845583A2000202020202020001A
S11306E6427574746F6E3A20526967687400427575
S11306F674746F6E3A20557000427574746F6E3A56
S113070620446F776E00427574746F6E3A204C65A0
S1130716667400427574746F6E3A2053656C656333
S11307267400427574746F6E3A204E6F6E650042A3
S11107367574746F6E3A204552524F52000093
S9030000FC
