S016000050726F796563746F5072756562612E737265635A
S11300000C9434000C9451000C9451000C94510045
S11300100C9451000C9451000C9451000C94510018
S11300200C9451000C940C010C9451000C9451004C
S11300300C9451000C9451000C9451000C945100F8
S11300400C9451000C9451000C9451000C945100E8
S11300500C9451000C9451000C9451000C945100D8
S11300600C9451000C94510011241FBECFEFD8E022
S1130070DEBFCDBF11E0A0E0B1E0EEE2F3E002C0EC
S113008005900D92A830B107D9F721E0A8E0B1E0BE
S113009001C01D92AA30B207E1F70E94EA000C9455
S11300A095010C940000299A000029980895CF9393
S11300B0C82F662311F0289A01C02898549A559A9B
S11300C0569A579A5F985E985D985C98CC230CF486
S11300D05F9AC6FD5E9AC5FD5D9AC4FD5C9A0E9456
S11300E053005F985E985D985C98C3FD5F9AC2FD6B
S11300F05E9AC1FD5D9AC0FD5C9A0E9453005C9AB1
S11301005D9A5E9A5F9A8AEF8A95F1F7CF91089586
S113011060E00E9457000895611104C080580E9455
S11301208800089580540E948800089581E00E9408
S11301308800089561E00E9457000895CF93DF93EB
S1130140EC012196FC018081882329F00E949A0009
S113015089918111FBCFDF91CF910895CF93C82F5F
S1130160209A559A219A549A559A569A579A8FE9F1
S11301709FE00197F1F700C000005D9A5C9A0E942D
S1130180530081EE94E00197F1F700C000000E9453
S1130190530095E19A95F1F700000E94530085E120
S11301A08A95F1F700005C980E94530095E19A95B6
S11301B0F1F7000088E20E94880088E00E9488002D
S11301C00E94960086E00E9488008C2F0E9488007E
S11301D0CF9108958EE00E94AE0060E081E00E941D
S11301E08C0080E091E00E949E0060E08CE00E9420
S11301F08C0081E60E949A0061E081E00E948C00FC
S113020082E60E949A0061E08CE00E948C0083E602
S11302100E949A007894FFCF1F920F920FB60F920C
S113022011242F933F934F935F936F937F938F93F7
S11302309F93AF93BF93EF93FF93CF93DF9300D03C
S1130240CDB7DEB780E290E09A838983809109017B
S11302508F5F863018F4809309011DC01092090144
S1130260809108014AE0BE016F5F7F4F90E00E94D9
S1130270600160E081E00E948C00CE0101960E9442
S11302809E00809108018F5F893018F480930801E3
S113029002C0109208010F900F90DF91CF91FF914F
S11302A0EF91BF91AF919F918F917F916F915F91EA
S11302B04F913F912F910F900FBE0F901F90189563
S11302C0BB274A3031F4992322F4BDE290958195FD
S11302D09F4F0C946C01BB27FB015527AA27880F5D
S11302E0991FAA1FA41710F0A41B83955051B9F7A6
S11302F0A05DAA3308F0A95DA193009779F7B11125
S1130300B1931192CB010C948501DC01FC01672FA0
S113031071917723E1F7329704C07C916D937083D8
S11103206291AE17BF07C8F30895F894FFCF9B
S10B032E30303A30302E30006B
S9030000FC
