S01C000050726F796563746F365F434F554E5445525F42492E7372656314
S11300000C9434000C9451000C9451000C94510045
S11300100C9451000C9451000C9451000C94510018
S11300200C9451000C9459010C9451000C945100FF
S11300300C9451000C94AD020C9451000C9451009A
S11300400C9465020C9451000C9451000C945100D2
S11300500C9451000C9451000C9451000C945100D8
S11300600C9451000C94510011241FBECFEFD8E022
S1130070DEBFCDBF11E0A0E0B1E0ECE8F7E002C0E4
S113008005900D92A239B107D9F721E0A2E9B1E0B8
S113009001C01D92A939B207E1F70E94FA000C943D
S11300A0C4030C940000299A85E08A95F1F70000B6
S11300B029980895CF93C82F662311F0289A01C078
S11300C02898549A559A569A579A5F985E985D98CC
S11300D05C98CC230CF45F9AC6FD5E9AC5FD5D9ACC
S11300E0C4FD5C9A0E9453005F985E985D985C988A
S11300F0C3FD5F9AC2FD5E9AC1FD5D9AC0FD5C9A24
S11301000E9453005C9A5D9A5E9A5F9A87EB9BE02B
S11301100197F1F700C00000CF91089560E00E94BC
S11301205A00089561E00E945A000895611104C0C4
S113013080580E948E00089580540E948E00089575
S113014081E00E948E00089561E00E945A000895A3
S1130150CF93DF93EC012196FC018081882329F061
S11301600E94A40089918111FBCFDF91CF91089562
S1130170CF93C82F209A559A219A549A559A569AF1
S1130180579A8FEF99EF0197F1F700C000005D9A3D
S11301905C9A0E9453008FE19EE40197F1F700C03E
S11301A000000E9453008FEF90E00197F1F700C028
S11301B000000E9453008FEF90E00197F1F700C018
S11301C000005C980E9453008FEF90E00197F1F7D4
S11301D000C0000088E20E948E0088E00E948E0029
S11301E00E94A00086E00E948E008C2F0E948E0048
S11301F0CF9108958CE00E94B80060E081E00E94F5
S1130200960089E391E00E94A80060E08BE00E94E0
S1130210960080E30E94A40061E081E00E949600C1
S113022080E20E94A40080E40E948E00C9E0D1E034
S113023009E311E089910E9492000C171D07D1F780
S1130240C1E0D1E009E011E089910E949200C01759
S1130250D107D1F780E80E948E0061E08BE00E9414
S1130260960081E491E00E94A800E1EBF0E0808137
S113027087608083E0E7F0E080818160808385B5DA
S11302808D7F85BD85B5856085BDEEE6F0E0808116
S113029081608083E1E8F0E080818B7F80838081CE
S11302A083608083EFE6F0E08081816080837894CE
S11302B0FFCF1F920F920FB60F9211242F933F93EB
S11302C04F935F936F937F938F939F93AF93BF935A
S11302D0EF93FF93CF93DF9300D000D0CDB7DEB779
S11302E080E290E09A8389839C838B838091980138
S11302F08F5F863018F480939801D0C010929801D3
S1130300809100018A3008F4B3C0109200018091FA
S113031097018F5F809397014AE0BE016D5F7F4F25
S1130320889FC00111240E948F0360E08BE00E942B
S11303309600CE0103960E94A800809197018A300E
S113034080F04AE0BE016F5F7F4F90E00E948F0310
S113035060E084E00E949600CE0101960E94A8000D
S11303600FC04AE0BE016F5F7F4F90E00E948F0391
S113037060E085E00E949600CE0101960E94A800EC
S1130380809197018C3308F473C0109297014AE06E
S1130390BE016F5F7F4F80E090E00E948F0360E0BA
S11303A084E00E949600CE0101960E94A8008091EC
S11303B097014AE0BE016D5F7F4F889FC001112401
S11303C00E948F0360E08BE00E949600CE010396AA
S11303D00E94A80060E08CE00E94960080E20E94E7
S11303E0920060E08DE00E94960080E20E949200FC
S11303F060E08EE00E94960080E20E94920080916C
S113040096018F5F809396018C3388F01092960149
S113041060E081E00E94960080E30E94A40060E016
S113042082E00E94960080E30E94A40021C08A30EA
S113043080F04AE0BE016F5F7F4F90E00E948F031F
S113044060E081E00E949600CE0101960E94A8001F
S11304500FC04AE0BE016F5F7F4F90E00E948F03A0
S113046060E082E00E949600CE0101960E94A800FE
S1130470809100014AE0BE016F5F7F4F90E00E94CF
S11304808F0360E087E00E949600CE0101960E94EF
S1130490A800809100018F5F809300010F900F905E
S11304A00F900F90DF91CF91FF91EF91BF91AF919A
S11304B09F918F917F916F915F914F913F912F9178
S11304C00F900FBE0F901F9018951F920F920FB6AA
S11304D00F9211242F933F934F935F936F937F93C6
S11304E08F939F93AF93BF93EF93FF938091950165
S11304F061E08F5F0E949600809194010E94A400A5
S1130500809194018F5F863018F48093940114C015
S113051010929401809195018F5F8A3018F4809332
S113052095010AC01092950161E081E00E94960055
S113053086E491E00E94A800FF91EF91BF91AF91F2
S11305409F918F917F916F915F914F913F912F91E7
S11305500F900FBE0F901F9018951F920F920FB619
S11305600F9211242F933F934F935F936F937F9335
S11305708F939F93AF93BF93EF93FF9380919301D6
S11305808F5F8093930161E08BE00E9496008091DD
S11305909301823008F4B2C01092930180919201C9
S11305A081110AC081E591E00E94A8008091920126
S11305B08F5F80939201A2C0813051F486E591E06F
S11305C00E94A800809192018F5F8093920196C04F
S11305D0823051F48BE591E00E94A8008091920151
S11305E08F5F809392018AC0833051F480E691E05A
S11305F00E94A800809192018F5F809392017EC037
S1130600843051F485E691E00E94A8008091920123
S11306108F5F8093920172C0853051F48AE691E035
S11306200E94A800809192018F5F8093920166C01E
S1130630863051F48FE691E00E94A80080919201E7
S11306408F5F809392015AC0873051F484E791E020
S11306500E94A800809192018F5F809392014EC006
S1130660883051F489E791E00E94A80080919201BA
S11306708F5F8093920142C0893051F48EE791E0FC
S11306800E94A800809192018F5F8093920136C0EE
S11306908A3051F48CE491E00E94A8008091920188
S11306A08F5F809392012AC08B3051F483E891E0EC
S11306B00E94A800809192018F5F809392011EC0D6
S11306C08C3051F488E891E00E94A8008091920156
S11306D08F5F8093920112C08D3051F48DE891E0C8
S11306E00E94A800809192018F5F8093920106C0BE
S11306F01092920181E491E00E94A800FF91EF9191
S1130700BF91AF919F918F917F916F915F914F9125
S11307103F912F910F900FBE0F901F901895BB27FC
S11307204A3031F4992322F4BDE2909581959F4F8C
S11307300C949B03BB27FB015527AA27880F991FFD
S1130740AA1FA41710F0A41B83955051B9F7A05DFC
S1130750AA3308F0A95DA193009779F7B111B19379
S11307601192CB010C94B403DC01FC01672F71914D
S11307707723E1F7329704C07C916D937083629183
S10F0780AE17BF07C8F30895F894FFCF2C
S113078C01150A150A150A150A00000000000000DC
S113079C0010101010101010101818181818181821
S11307AC181C1C1C1C1C1C1C1C1E1E1E1E1E1E1E6F
S11307BC1E1F1F1F1F1F1F1F1F30303A30302E30BB
S11307CC0049206C6900202020202020202020209B
S11307DC00206C696B006C696B6500696B652000AB
S11307EC6B65204400652044450020444532004498
S11307FC45322100453221200032212020002120C5
S113080C20200020202049002020492000204920BD
S105081C6C006A
S9030000FC
