S01C000050726F796563746F365F434F554E5445525F42492E7372656314
S11300000C9434000C9451000C9451000C94510045
S11300100C9451000C9451000C9451000C94510018
S11300200C9451000C9441010C9451000C94510017
S11300300C9451000C9451000C9451000C945100F8
S11300400C944B020C9451000C9451000C945100EC
S11300500C9451000C9451000C9451000C945100D8
S11300600C9451000C94510011241FBECFEFD8E022
S1130070DEBFCDBF11E0A0E0B1E0E2E3F6E002C0F4
S113008005900D92A231B107D9F721E0A2E1B1E0C8
S113009001C01D92A731B207E1F70E94FA000C9447
S11300A017030C940000299A85E08A95F1F7000063
S11300B029980895CF93C82F662311F0289A01C078
S11300C02898549A559A569A579A5F985E985D98CC
S11300D05C98CC230CF45F9AC6FD5E9AC5FD5D9ACC
S11300E0C4FD5C9A0E9453005F985E985D985C988A
S11300F0C3FD5F9AC2FD5E9AC1FD5D9AC0FD5C9A24
S11301000E9453005C9A5D9A5E9A5F9A87EB9BE02B
S11301100197F1F700C00000CF91089560E00E94BC
S11301205A00089561E00E945A000895611104C0C4
S113013080580E948E00089580540E948E00089575
S113014081E00E948E00089561E00E945A000895A3
S1130150CF93DF93EC012196FC018081882329F061
S11301600E94A40089918111FBCFDF91CF91089562
S1130170CF93C82F209A559A219A549A559A569AF1
S1130180579A8FEF99EF0197F1F700C000005D9A3D
S11301905C9A0E9453008FE19EE40197F1F700C03E
S11301A000000E9453008FEF90E00197F1F700C028
S11301B000000E9453008FEF90E00197F1F700C018
S11301C000005C980E9453008FEF90E00197F1F7D4
S11301D000C0000088E20E948E0088E00E948E0029
S11301E00E94A00086E00E948E008C2F0E948E0048
S11301F0CF9108958CE00E94B80060E081E00E94F5
S1130200960089E091E00E94A80060E08BE00E94E3
S1130210960080E30E94A40061E081E00E949600C1
S113022080E20E94A40080E40E948E00C1E0D1E03C
S113023009E011E089910E949200C017D107D1F71B
S113024080E80E948E0061E08BE00E94960080E0CE
S11302500E94A400E1EBF0E0808187608083E0E706
S1130260F0E080818160808385B58D7F85BD85B513
S1130270856085BDEEE6F0E08081816080837894BE
S1130280FFCF1F920F920FB60F9211242F933F931B
S11302904F935F936F937F938F939F93AF93BF938A
S11302A0EF93FF93CF93DF9300D000D0CDB7DEB7A9
S11302B080E290E09A8389839C838B8380911601EA
S11302C08F5F863018F480931601CEC01092160109
S11302D0809115014AE0BE016F5F7F4F90E00E945C
S11302E0E20260E087E00E949600CE0101960E943F
S11302F0A800809115018F5F8A3018F4809315014E
S1130300B3C010921501809114018F5F8093140182
S11303104AE0BE016D5F7F4F889FC00111240E9497
S1130320E20260E08BE00E949600CE0103960E94F8
S1130330A800809114018A3080F04AE0BE016F5F0A
S11303407F4F90E00E94E20260E084E00E94960009
S1130350CE0101960E94A8000FC04AE0BE016F5F63
S11303607F4F90E00E94E20260E085E00E949600E8
S1130370CE0101960E94A800809114018C3308F4E8
S113038073C0109214014AE0BE016F5F7F4F80E09A
S113039090E00E94E20260E084E00E949600CE01B8
S11303A001960E94A800809114014AE0BE016D5F8D
S11303B07F4F889FC00111240E94E20260E08BE01D
S11303C00E949600CE0103960E94A80060E08CE093
S11303D00E94960080E20E94920060E08DE00E94FC
S11303E0960080E20E94920060E08EE00E949600F7
S11303F080E20E949200809113018F5F8093130129
S11304008C3388F01092130160E081E00E94960022
S113041080E30E94A40060E082E00E94960080E3F2
S11304200E94A40021C08A3080F04AE0BE016F5FC0
S11304307F4F90E00E94E20260E081E00E9496001B
S1130440CE0101960E94A8000FC04AE0BE016F5F72
S11304507F4F90E00E94E20260E082E00E949600FA
S1130460CE0101960E94A8000F900F900F900F905C
S1130470DF91CF91FF91EF91BF91AF919F918F91B8
S11304807F916F915F914F913F912F910F900FBE8C
S11304900F901F9018951F920F920FB60F92112470
S11304A02F933F934F935F936F937F938F939F9378
S11304B0AF93BF93EF93FF93809112018F5F8630C8
S11304C018F4809312016DC0109212018091000102
S11304D08B3009F04DC061E080E00E94960080E21C
S11304E00E94920061E081E00E94960080E20E94F6
S11304F0920061E082E00E94960080E20E949200F5
S113050061E083E00E94960080E20E94920061E034
S113051084E00E94960080E20E94920061E085E0FF
S11305200E94960080E20E94920061E086E00E94B0
S1130530960080E20E94920061E087E00E949600AB
S113054080E20E94920061E088E00E94960080E2CE
S11305500E94920061E089E00E94960080E20E947D
S1130560920061E08AE00E94960080E20E9492007C
S1130570809100018B3038F461E00E9496008FEF87
S11305800E94920009C081E08093000161E00E9412
S113059096008FEF0E949200809100018F5F8093FC
S11305A00001FF91EF91BF91AF919F918F917F9146
S11305B06F915F914F913F912F910F900FBE0F90CC
S11305C01F901895BB274A3031F4992322F4BDE2D9
S11305D0909581959F4F0C94EE02BB27FB01552704
S11305E0AA27880F991FAA1FA41710F0A41B83958C
S11305F05051B9F7A05DAA3308F0A95DA193009703
S113060079F7B111B1931192CB010C940703DC017A
S1130610FC01672F71917723E1F7329704C07C9135
S11306206D9370836291AE17BF07C8F30895F89471
S1050630FFCFF6
S113063201150A150A150A150A30303A30302E30DF
S10506420000B2
S9030000FC
