S01C000050726F796563746F325F50756C735F354C4544532E73726563C2
S11300000C9434000C943E000C943E000C943E007E
S11300100C943E000C943E000C943E000C943E0064
S11300200C943E000C943E000C943E000C943E0054
S11300300C943E000C943E000C943E000C943E0044
S11300400C943E000C943E000C943E000C943E0034
S11300500C943E000C943E000C943E000C943E0024
S11300600C943E000C943E0011241FBECFEFD8E048
S1130070DEBFCDBF0E9440000C94CC000C94000065
S1130080389A409A259A2D98249A2C98239A2B983A
S1130090229A2A985098589A51E020E290E188E0F8
S11300A044E04899FECF38B1352738B93FEF65EAC7
S11300B07EE0315060407040E1F700C0000038B18C
S11300C0352738B935B1322735B93FEF65EA7EE0D7
S11300D0315060407040E1F700C0000035B1322774
S11300E035B935B1392735B93FEF65EA7EE031508E
S11300F060407040E1F700C0000035B1392735B9E0
S113010035B1382735B93FEF65EA7EE031506040BC
S11301107040E1F700C0000035B1382735B935B17A
S1130120342735B93FEF65EA7EE0315060407040D6
S1130130E1F700C0000035B1342735B935B13827AF
S113014035B93FEF65EA7EE0315060407040E1F739
S113015000C0000035B1382735B935B1392735B974
S11301603FEF65EA7EE0315060407040E1F700C047
S1130170000035B1392735B935B1322735B93FEFEC
S113018065EA7EE0315060407040E1F700C0000055
S10F019035B1322735B985CFF894FFCF84
S9030000FC
