S015000050726F796563746F375F4144432E737265635C
S11300000C9434000C9451000C9451000C94510045
S11300100C9451000C9451000C9451000C94510018
S11300200C9451000C9451000C9451000C94510008
S11300300C9451000C9443010C9451000C94510005
S11300400C9451000C9451000C940A020C94380244
S11300500C9451000C9458010C9451000C945100D0
S11300600C9451000C94510011241FBECFEFD8E022
S1130070DEBFCDBF11E0A0E0B1E0E2E3F5E002C0F5
S113008005900D92AC33B107D9F721E0ACE3B1E0B0
S113009001C01D92A13CB207E1F70E94F6000C9446
S11300A097020C940000299A85E08A95F1F70000E4
S11300B029980895CF93C82F662311F0289A01C078
S11300C02898549A559A569A579A5F985E985D98CC
S11300D05C98CC230CF45F9AC6FD5E9AC5FD5D9ACC
S11300E0C4FD5C9A0E9453005F985E985D985C988A
S11300F0C3FD5F9AC2FD5E9AC1FD5D9AC0FD5C9A24
S11301000E9453005C9A5D9A5E9A5F9A87EB9BE02B
S11301100197F1F700C00000CF91089560E00E94BC
S11301205A000895611104C080580E948E000895F9
S113013080540E948E00089581E00E948E000895EC
S113014061E00E945A000895CF93DF93EC01219659
S1130150FC018081882329F00E94A00089918111EB
S1130160FBCFDF91CF910895CF93C82F209A559A52
S1130170219A549A559A569A579A8FEF99EF019764
S1130180F1F700C000005D9A5C9A0E9453008FE171
S11301909EE40197F1F700C000000E9453008FEF26
S11301A090E00197F1F700C000000E9453008FEF28
S11301B090E00197F1F700C000005C980E945300A2
S11301C08FEF90E00197F1F700C0000088E20E94F1
S11301D08E0088E00E948E000E949C0086E00E94AF
S11301E08E008C2F0E948E00CF9108958CE00E9487
S11301F0B40060E081E00E94920080E091E00E94FF
S1130200A40061E083E00E94920087E091E00E94F4
S1130210A40060E088E00E9492008CE091E00E94DB
S1130220A40060E08DE00E9492008EE091E00E94C4
S1130230A40061E088E00E94920080E191E00E94C5
S1130240A400ECE7F0E08081806480838081807F7B
S11302508083EAE7F0E08081806880838081886021
S11302608083808187608083E1E8F0E080818B7FF8
S11302708083808183608083EFE6F0E08081816009
S113028080837894FFCF1F920F920FB60F921124A0
S11302908F93EF93FF93EAE7F0E08081806480839B
S11302A0FF91EF918F910F900FBE0F901F901895B3
S11302B01F920F920FB60F9211240F931F932F9337
S11302C03F934F935F936F937F938F939F93AF93DA
S11302D0BF93EF93FF93CF93DF9300D000D0CDB7BC
S11302E0DEB780E390E39A8389839C838B830091B8
S11302F07800109179004AE0BE016F5F7F4FC8011A
S11303000E94620260E088E00E94920087E191E02E
S11303100E94A40060E088E00E949200CE01019651
S11303200E94A40040E1BE016F5F7F4FC8010E949C
S1130330620260E08DE00E94920087E191E00E94F9
S1130340A40060E08DE00E949200CE0101960E941C
S1130350A40061E088E00E94920085E191E00E949F
S1130360A40061E088E00E9492000330110528F4A3
S11303708CE191E00E94A40034C0C8018356910925
S1130380059728F482E291E00E94A4002AC0C801E3
S1130390835F9109059728F485E291E00E94A40007
S11303A020C0C80180599140059728F48AE291E061
S11303B00E94A40016C0C80188589240059728F4EA
S11303C08FE291E00E94A4000CC00D3F134028F07E
S11303D080E191E00E94A40004C086E391E00E94C1
S11303E0A4000F900F900F900F90DF91CF91FF9189
S11303F0EF91BF91AF919F918F917F916F915F9199
S11304004F913F912F911F910F910F900FBE0F901D
S11304101F9018951F920F920FB60F9211242F93CD
S11304208F939F93EF93FF938091C0002091C60018
S11304308C71E0913E01EF5FEF7390913D01E917FC
S113044039F0E0933E01F0E0EF5BFE4F208301C002
S113045082E090913C01892B80933C01FF91EF91C4
S11304609F918F912F910F900FBE0F901F90189511
S11304701F920F920FB60F9211248F939F93EF93B5
S1130480FF939091400180913F01981769F0E091AA
S11304903F01EF5FEF73E0933F01F0E0EF57FE4F52
S11304A080818093C60005C0E1ECF0E080818F7DFF
S11304B08083FF91EF919F918F910F900FBE0F90CA
S11304C01F901895BB274A3031F4992322F4BDE2DA
S11304D0909581959F4F0C946E02BB27FB01552785
S11304E0AA27880F991FAA1FA41710F0A41B83958D
S11304F05051B9F7A05DAA3308F0A95DA193009704
S113050079F7B111B1931192CB010C948702DC01FC
S1130510FC01672F71917723E1F7329704C07C9136
S11305206D9370836291AE17BF07C8F30895F89472
S1050530FFCFF7
S113053276616C75653A006B65793A006100620018
S11305424E6F6E65002020202020200052696768CB
S11305527400557000446F776E004C6566740053E6
S10F0562656C656374004552524F5200F2
S9030000FC
